:040DF5007F327E00CB
:0B0DF900EF1FAC0670011E4C70F622CC
:020D5000AD07ED
:100D5200E4FBEBC39408748094805012C294ED13A8
:100D62009294120DF5D294EDC313FD0B80E47F3201
:050D72007E00020DF9F6
:100D9E00E4FBEBC39408748094805014C294EDC3AA
:100DAE0013FDD294309403430580120DF50B80E2AF
:020DBE00AF057F
:010DC0002210
:100D7700C200D2947F787E00120DF9C2947F207E44
:100D870003120DF9D2947F647E00120DF9A294929A
:060D970000120DF5A200A0
:010D9D002233
:100DE100C0F9A4B0999282F880904079203019120C
:040DF1000278001074
:040E0F0002080000D5
:0B0E0400120CFB120BDB120B3280F80B
:100CFB00E5A0541F4480F5A07580FFE5A0541F4468
:100D0B00A0F5A0E4F580E5A0541F44C0F5A07580C4
:0D0D1B00FFE5A0541F44E0F5A07580FF2205
:100DC100E5A0541F44C0F5A0A8077401088002C320
:100DD10033D8FCF580E5A0541F44E0F5A08D8022B6
:100B32007DFFE4FF120DC10F7E00120D327DFF7F9B
:100B420001120DC17E00120D327DFF7F02120DC116
:100B52001F7E00120D327DFF7F03120D2B7DFF7F62
:100B620004120D2BAE08AF097C007D64120ACF740B
:100B7200E12FF582740D3EF5837F05120D28AE0834
:100B8200AF097C007D64120ACF7E007F0ACFCDCFF1
:100B9200CECCCE120ACF74EB2FF582740D3EF583C4
:100BA2007F06120D28AE08AF097C007D0A120ACF1B
:100BB20074E12DF582740D3CF583E493FD7F0712F9
:100BC2000D2BE5A0541F44C0F5A07580FFE5A0548D
:090BD2001F44E0F5A07580FF222C
:0A0D2800E493FD120DC17F017E006F
:100D3200D3EF9400EE940040147D2A7C03ED1D70E5
:0D0D4200011CED4C70F7EF1F70E61E80E302
:010D4F002281
:100BDB00120D777FCC120D507F44120D50120D2E3B
:100BEB00120D777FCC120D507FBE120D50120D9E41
:100BFB008F0A120D9E8F0B120D77750800850B094E
:100C0B00E509F508E50AF509E50854F87055E50816
:100C1B00C4F854F0C868F508E509C4540F48F50941
:100C2B00AE08FF7C007D0A120ABD8E088F09E50A0B
:100C3B00540FFCE4120A08E4FBFA7920783F1208FF
:100C4B00F8C004C005C006C007AC08AD09E4120A21
:100C5B0003D003D002D001D000120807120A3C8E39
:030C6B00088F09E6
:010C6E002263
:10080000020AA8E86480F8E933E83360110460F074
:10081000ED33EC337009E8FCE9FDEAFEEBFF22045E
:1008200060DED3EB9FEA9EE99DE8C2E78CF0C2F759
:1008300095F0400CE8CCF8E9CDF9EACEFAEBCFFB25
:10084000120A7385D0F05804700320D5B3E8047001
:10085000075002B2D5020AB292D5EC0460F7E4CC9C
:10086000C0E0C398F8603B94186008400DD0E0FBEE
:10087000020A8AE4FBFAC9FC8028E830E406E4C9ED
:10088000FBE4CAFCE830E305E4C9CACBFCE8540742
:100890006010F8C3E913F9EA13FAEB13FBEC13FC4D
:1008A000D8F130F52FC3E49CFCEF9BFFEE9AFEEDF0
:1008B00099FDD0E0FBEF4E4D4C701222DB03020A93
:1008C000AFEC2CFCEF33FFEE33FEED33FDED30E704
:1008D000EB020A8AEF2BFFEE3AFEED39FDD0E0FB8A
:1008E00050130BBB0003020AB2ED13FDEE13FEEF33
:0808F00013FFEC13FC020A8A5D
:1008F800EC4D6011E8497017ED33EC3304600DE4FA
:10090800FCFFFEFD22E933E8330470F8020AA8125E
:100918000A7358046009E4CC24815006285009025F
:100928000AB2284003020AAFC0E0EB4A7044B9801B
:1009380006D0E0FB020A9EEF4E701CBD8008EBFF5C
:10094800EAFEE9FD80EBE98DF0A4FEE5F00209E19D
:10095800E9CDF9EAFEEBFFEF89F0A4FCE5F0CE89DA
:10096800F0A42EFFE435F0CD89F0A42DFEE435F097
:100978008067EF4E7005BD80D780C3EF8BF0A4ACC5
:10098800F0EE8BF0A42CFCE435F0F8EF8AF0A42C00
:10099800E5F038FCE433CB8DF0A42CFCE5F03BF813
:1009A800EE8AF0A42CFCE5F038F8E433CF89F0A403
:1009B8002CFCE5F038CF3400CE89F0A42FFFE5F009
:1009C8003EFEE433C98DF0A42EFEE5F039CD8AF061
:1009D800A42FFFE5F03EFEE43DFD33D0E0FB5007D9
:1009E8000BBB000F020AB2EC2CFCEF33FFEE33FE18
:0609F800ED33FD020A8A46
:1009FE0075F020800E75F010800575F0087D007E74
:100A0E00007F003392D530D503120B24EC33401007
:100A1E00EF33FFEE33FEED33FDEC33FCD5F0ED227C
:0E0A2E00E5F0247EA2D513CC92E7CDCEFF22B8
:100A3C00EDD2E7CD33EC3392D524814006E4FFFEB2
:100A4C00FDFC22FCE4CFCECDCC24E0501174FF8011
:100A5C00EDC3CC13CCCD13CDCE13CECF13CF0470AE
:070A6C00F030D5DE020B247F
:100A7300E9D2E7C933E833F892D5EDD2E7CD33ECC9
:070A830033FC5002B2D52242
:100A8A00EC30E7100FBF000C0EBE00080DBD0004CD
:100A9A000BEB6014A2D5EB13FCED92E7FD2274FF79
:100AAA00FCFDFEFF22E480F8A2D574FF13FC7D80D2
:030ABA00E480EFE6
:03000000020C6F80
:0C0C6F00787FE4F6D8FD758120020CB6F9
:100ABD00EF8DF0A4A8F0CF8CF0A428CE8DF0A42E4D
:020ACD00FE2207
:100ACF00BC000BBE0029EF8DF084FFADF022E4CC0B
:100ADF00F875F008EF2FFFEE33FEEC33FCEE9DECD4
:100AEF00984005FCEE9DFE0FD5F0E9E4CEFD22ED1A
:100AFF00F8F5F0EE8420D21CFEADF075F008EF2F64
:100B0F00FFED33FD4007985006D5F0F222C398FD54
:050B1F000FD5F0EA22F1
:0E0B2400C3E49FFFE49EFEE49DFDE49CFC22E2
:100C7B00020E04E493A3F8E493A34003F68001F27D
:100C8B0008DFF48029E493A3F85407240CC8C3337A
:100C9B00C4540F4420C8834004F456800146F6DF49
:100CAB00E4800B0102040810204080900E0FE47EBC
:100CBB00019360BCA3FF543F30E509541FFEE4933E
:100CCB00A360010ECF54C025E060A840B8E493A305
:100CDB00FAE493A3F8E493A3C8C582C8CAC583CA30
:100CEB00F0A3C8C582C8CAC583CADFE9DEE780BEE8
:010E130000DE
:00000001FF
